{
  "_format": "hh-sol-artifact-1",
  "contractName": "Project",
  "sourceName": "contracts/Project.sol",
  "abi": [
    {
      "inputs": [
        {
          "internalType": "address",
          "name": "_creator",
          "type": "address"
        },
        {
          "internalType": "uint256",
          "name": "_minimumContribution",
          "type": "uint256"
        },
        {
          "internalType": "uint256",
          "name": "_deadline",
          "type": "uint256"
        },
        {
          "internalType": "uint256",
          "name": "_targetContribution",
          "type": "uint256"
        },
        {
          "internalType": "string",
          "name": "_projectTitle",
          "type": "string"
        },
        {
          "internalType": "string",
          "name": "_projectDes",
          "type": "string"
        }
      ],
      "stateMutability": "nonpayable",
      "type": "constructor"
    },
    {
      "anonymous": false,
      "inputs": [
        {
          "indexed": false,
          "internalType": "uint256",
          "name": "requestId",
          "type": "uint256"
        },
        {
          "indexed": false,
          "internalType": "string",
          "name": "description",
          "type": "string"
        },
        {
          "indexed": false,
          "internalType": "uint256",
          "name": "amount",
          "type": "uint256"
        },
        {
          "indexed": false,
          "internalType": "uint256",
          "name": "noOfVotes",
          "type": "uint256"
        },
        {
          "indexed": false,
          "internalType": "bool",
          "name": "isCompleted",
          "type": "bool"
        },
        {
          "indexed": false,
          "internalType": "address",
          "name": "reciptent",
          "type": "address"
        }
      ],
      "name": "AmountWithdrawSuccessful",
      "type": "event"
    },
    {
      "anonymous": false,
      "inputs": [
        {
          "indexed": false,
          "internalType": "address",
          "name": "contributor",
          "type": "address"
        },
        {
          "indexed": false,
          "internalType": "uint256",
          "name": "amount",
          "type": "uint256"
        },
        {
          "indexed": false,
          "internalType": "uint256",
          "name": "currentTotal",
          "type": "uint256"
        }
      ],
      "name": "FundingReceived",
      "type": "event"
    },
    {
      "anonymous": false,
      "inputs": [
        {
          "indexed": false,
          "internalType": "uint256",
          "name": "requestId",
          "type": "uint256"
        },
        {
          "indexed": false,
          "internalType": "string",
          "name": "description",
          "type": "string"
        },
        {
          "indexed": false,
          "internalType": "uint256",
          "name": "amount",
          "type": "uint256"
        },
        {
          "indexed": false,
          "internalType": "uint256",
          "name": "noOfVotes",
          "type": "uint256"
        },
        {
          "indexed": false,
          "internalType": "bool",
          "name": "isCompleted",
          "type": "bool"
        },
        {
          "indexed": false,
          "internalType": "address",
          "name": "reciptent",
          "type": "address"
        }
      ],
      "name": "WithdrawRequestCreated",
      "type": "event"
    },
    {
      "anonymous": false,
      "inputs": [
        {
          "indexed": false,
          "internalType": "address",
          "name": "voter",
          "type": "address"
        },
        {
          "indexed": false,
          "internalType": "uint256",
          "name": "totalVote",
          "type": "uint256"
        }
      ],
      "name": "WithdrawVote",
      "type": "event"
    },
    {
      "inputs": [],
      "name": "completeAt",
      "outputs": [
        {
          "internalType": "uint256",
          "name": "",
          "type": "uint256"
        }
      ],
      "stateMutability": "view",
      "type": "function"
    },
    {
      "inputs": [
        {
          "internalType": "address",
          "name": "_contributor",
          "type": "address"
        }
      ],
      "name": "contribute",
      "outputs": [],
      "stateMutability": "payable",
      "type": "function"
    },
    {
      "inputs": [
        {
          "internalType": "address",
          "name": "",
          "type": "address"
        }
      ],
      "name": "contributiors",
      "outputs": [
        {
          "internalType": "uint256",
          "name": "",
          "type": "uint256"
        }
      ],
      "stateMutability": "view",
      "type": "function"
    },
    {
      "inputs": [
        {
          "internalType": "string",
          "name": "_description",
          "type": "string"
        },
        {
          "internalType": "uint256",
          "name": "_amount",
          "type": "uint256"
        },
        {
          "internalType": "address payable",
          "name": "_reciptent",
          "type": "address"
        }
      ],
      "name": "createWithdrawRequest",
      "outputs": [],
      "stateMutability": "nonpayable",
      "type": "function"
    },
    {
      "inputs": [],
      "name": "creator",
      "outputs": [
        {
          "internalType": "address payable",
          "name": "",
          "type": "address"
        }
      ],
      "stateMutability": "view",
      "type": "function"
    },
    {
      "inputs": [],
      "name": "deadline",
      "outputs": [
        {
          "internalType": "uint256",
          "name": "",
          "type": "uint256"
        }
      ],
      "stateMutability": "view",
      "type": "function"
    },
    {
      "inputs": [],
      "name": "getContractBalance",
      "outputs": [
        {
          "internalType": "uint256",
          "name": "",
          "type": "uint256"
        }
      ],
      "stateMutability": "view",
      "type": "function"
    },
    {
      "inputs": [],
      "name": "getProjectDetails",
      "outputs": [
        {
          "internalType": "address payable",
          "name": "projectStarter",
          "type": "address"
        },
        {
          "internalType": "uint256",
          "name": "minContribution",
          "type": "uint256"
        },
        {
          "internalType": "uint256",
          "name": "projectDeadline",
          "type": "uint256"
        },
        {
          "internalType": "uint256",
          "name": "goalAmount",
          "type": "uint256"
        },
        {
          "internalType": "uint256",
          "name": "completedTime",
          "type": "uint256"
        },
        {
          "internalType": "uint256",
          "name": "currentAmount",
          "type": "uint256"
        },
        {
          "internalType": "string",
          "name": "title",
          "type": "string"
        },
        {
          "internalType": "string",
          "name": "desc",
          "type": "string"
        },
        {
          "internalType": "enum Project.State",
          "name": "currentState",
          "type": "uint8"
        },
        {
          "internalType": "uint256",
          "name": "balance",
          "type": "uint256"
        }
      ],
      "stateMutability": "view",
      "type": "function"
    },
    {
      "inputs": [],
      "name": "minimumContribution",
      "outputs": [
        {
          "internalType": "uint256",
          "name": "",
          "type": "uint256"
        }
      ],
      "stateMutability": "view",
      "type": "function"
    },
    {
      "inputs": [],
      "name": "noOfContributers",
      "outputs": [
        {
          "internalType": "uint256",
          "name": "",
          "type": "uint256"
        }
      ],
      "stateMutability": "view",
      "type": "function"
    },
    {
      "inputs": [],
      "name": "numOfWithdrawRequests",
      "outputs": [
        {
          "internalType": "uint256",
          "name": "",
          "type": "uint256"
        }
      ],
      "stateMutability": "view",
      "type": "function"
    },
    {
      "inputs": [],
      "name": "projectDes",
      "outputs": [
        {
          "internalType": "string",
          "name": "",
          "type": "string"
        }
      ],
      "stateMutability": "view",
      "type": "function"
    },
    {
      "inputs": [],
      "name": "projectTitle",
      "outputs": [
        {
          "internalType": "string",
          "name": "",
          "type": "string"
        }
      ],
      "stateMutability": "view",
      "type": "function"
    },
    {
      "inputs": [],
      "name": "raisedAmount",
      "outputs": [
        {
          "internalType": "uint256",
          "name": "",
          "type": "uint256"
        }
      ],
      "stateMutability": "view",
      "type": "function"
    },
    {
      "inputs": [],
      "name": "requestRefund",
      "outputs": [
        {
          "internalType": "bool",
          "name": "",
          "type": "bool"
        }
      ],
      "stateMutability": "nonpayable",
      "type": "function"
    },
    {
      "inputs": [],
      "name": "state",
      "outputs": [
        {
          "internalType": "enum Project.State",
          "name": "",
          "type": "uint8"
        }
      ],
      "stateMutability": "view",
      "type": "function"
    },
    {
      "inputs": [],
      "name": "targetContribution",
      "outputs": [
        {
          "internalType": "uint256",
          "name": "",
          "type": "uint256"
        }
      ],
      "stateMutability": "view",
      "type": "function"
    },
    {
      "inputs": [
        {
          "internalType": "uint256",
          "name": "_requestId",
          "type": "uint256"
        }
      ],
      "name": "voteWithdrawRequest",
      "outputs": [],
      "stateMutability": "nonpayable",
      "type": "function"
    },
    {
      "inputs": [
        {
          "internalType": "uint256",
          "name": "_requestId",
          "type": "uint256"
        }
      ],
      "name": "withdrawRequestedAmount",
      "outputs": [],
      "stateMutability": "nonpayable",
      "type": "function"
    },
    {
      "inputs": [
        {
          "internalType": "uint256",
          "name": "",
          "type": "uint256"
        }
      ],
      "name": "withdrawRequests",
      "outputs": [
        {
          "internalType": "string",
          "name": "description",
          "type": "string"
        },
        {
          "internalType": "uint256",
          "name": "amount",
          "type": "uint256"
        },
        {
          "internalType": "uint256",
          "name": "noOfVotes",
          "type": "uint256"
        },
        {
          "internalType": "bool",
          "name": "isCompleted",
          "type": "bool"
        },
        {
          "internalType": "address payable",
          "name": "reciptent",
          "type": "address"
        }
      ],
      "stateMutability": "view",
      "type": "function"
    }
  ],
  "bytecode": "0x60806040526009805460ff191690556000600c553480156200002057600080fd5b5060405162001782380380620017828339810160408190526200004391620001fc565b600080546001600160a01b0319166001600160a01b038816179055600185905560028490556003839055815162000082906007906020850190620000ab565b50805162000098906008906020840190620000ab565b5050600060055550620002f29350505050565b828054620000b9906200029f565b90600052602060002090601f016020900481019282620000dd576000855562000128565b82601f10620000f857805160ff191683800117855562000128565b8280016001018555821562000128579182015b82811115620001285782518255916020019190600101906200010b565b50620001369291506200013a565b5090565b5b808211156200013657600081556001016200013b565b600082601f83011262000162578081fd5b81516001600160401b03808211156200017f576200017f620002dc565b6040516020601f8401601f1916820181018381118382101715620001a757620001a7620002dc565b6040528382528584018101871015620001be578485fd5b8492505b83831015620001e15785830181015182840182015291820191620001c2565b83831115620001f257848185840101525b5095945050505050565b60008060008060008060c0878903121562000215578182fd5b86516001600160a01b03811681146200022c578283fd5b6020880151604089015160608a015160808b0151939950919750955093506001600160401b03808211156200025f578384fd5b6200026d8a838b0162000151565b935060a089015191508082111562000283578283fd5b506200029289828a0162000151565b9150509295509295509295565b600281046001821680620002b457607f821691505b60208210811415620002d657634e487b7160e01b600052602260045260246000fd5b50919050565b634e487b7160e01b600052604160045260246000fd5b61148080620003026000396000f3fe60806040526004361061011f5760003560e01c8063937e09b1116100a0578063c19d93fb11610064578063c19d93fb146102d7578063c3e20c9f146102f9578063c59ee1dc1461030e578063d5cef13314610323578063ff3a9c7e146103455761011f565b8063937e09b114610247578063992a7dfb1461025c578063a46752ae1461028d578063b40141bf146102ad578063b82c86d6146102c25761011f565b80634c4cea5a116100e75780634c4cea5a146101c85780634e695a37146101dd5780636f9fb98a146101ff57806373e888fd14610214578063752e19f9146102275761011f565b806302d05d3f1461012457806303c29d581461014f5780630a7713701461017157806324274ee91461019e57806329dcb0cf146101b3575b600080fd5b34801561013057600080fd5b50610139610370565b6040516101469190610ef1565b60405180910390f35b34801561015b57600080fd5b5061016461037f565b6040516101469190610fd9565b34801561017d57600080fd5b5061019161018c366004610d7c565b61040d565b604051610146919061123e565b3480156101aa57600080fd5b5061019161041f565b3480156101bf57600080fd5b50610191610425565b3480156101d457600080fd5b5061019161042b565b3480156101e957600080fd5b506101fd6101f8366004610e59565b610431565b005b34801561020b57600080fd5b50610191610520565b6101fd610222366004610d7c565b610524565b34801561023357600080fd5b506101fd610242366004610e59565b61066e565b34801561025357600080fd5b50610191610817565b34801561026857600080fd5b5061027c610277366004610e59565b61081d565b604051610146959493929190610fec565b34801561029957600080fd5b506101fd6102a8366004610d9f565b6108e2565b3480156102b957600080fd5b50610191610a21565b3480156102ce57600080fd5b50610191610a27565b3480156102e357600080fd5b506102ec610a2d565b6040516101469190610fc5565b34801561030557600080fd5b50610164610a36565b34801561031a57600080fd5b50610191610a43565b34801561032f57600080fd5b50610338610a49565b6040516101469190610fba565b34801561035157600080fd5b5061035a610b33565b6040516101469a99989796959493929190610f05565b6000546001600160a01b031681565b6008805461038c906113b0565b80601f01602080910402602001604051908101604052809291908181526020018280546103b8906113b0565b80156104055780601f106103da57610100808354040283529160200191610405565b820191906000526020600020905b8154815290600101906020018083116103e857829003601f168201915b505050505081565b600a6020526000908152604090205481565b60065481565b60025481565b60045481565b336000908152600a60205260409020546104665760405162461bcd60e51b815260040161045d9061102c565b60405180910390fd5b6000818152600b60209081526040808320338452600381019092529091205460ff16156104a55760405162461bcd60e51b815260040161045d906110f9565b3360009081526003820160205260408120805460ff19166001908117909155600283018054919290916104d9908490611378565b909155505060028101546040517fa2925e4595bf873fa82c22a1a89809777347023bf2b502d32710157a5eb8199c9161051491339190610f80565b60405180910390a15050565b4790565b60008060095460ff16600281111561054c57634e487b7160e01b600052602160045260246000fd5b146105695760405162461bcd60e51b815260040161045d90611155565b600254421061058a5760405162461bcd60e51b815260040161045d90611126565b6001543410156105ac5760405162461bcd60e51b815260040161045d9061117c565b6001600160a01b0382166000908152600a60205260409020546105df57600680549060006105d9836113eb565b91905055505b6001600160a01b0382166000908152600a602052604081208054349290610607908490611378565b9250508190555034600560008282546106209190611378565b90915550506005546040517f5cdc4ab8d637538ead6cc1904d4160343656c8c82bd266635cfd31ac008fffe09161065a9185913491610f99565b60405180910390a161066a610ca1565b5050565b6000546001600160a01b031633146106985760405162461bcd60e51b815260040161045d906110a9565b60028060095460ff1660028111156106c057634e487b7160e01b600052602160045260246000fd5b146106dd5760405162461bcd60e51b815260040161045d90611155565b60025442106106fe5760405162461bcd60e51b815260040161045d90611126565b6000828152600b60205260409020600481015460ff16156107315760405162461bcd60e51b815260040161045d906111b1565b60026006546107409190611390565b816002015410156107635760405162461bcd60e51b815260040161045d906111e8565b600481015460018201546040516101009092046001600160a01b0316916108fc82150291906000818181858888f193505050501580156107a7573d6000803e3d6000fd5b5060048101805460ff19166001908117918290558281015460028401546040517f2af8d60b878c5e8de57c8ff96e03c6cfab6de26b47e989757345cc1dceaac9989461080a9489948894909390926001600160a01b03610100909104169061128e565b60405180910390a1505050565b60015481565b600b60205260009081526040902080548190610838906113b0565b80601f0160208091040260200160405190810160405280929190818152602001828054610864906113b0565b80156108b15780601f10610886576101008083540402835291602001916108b1565b820191906000526020600020905b81548152906001019060200180831161089457829003601f168201915b50505050600183015460028401546004909401549293909290915060ff81169061010090046001600160a01b031685565b6000546001600160a01b0316331461090c5760405162461bcd60e51b815260040161045d906110a9565b60028060095460ff16600281111561093457634e487b7160e01b600052602160045260246000fd5b146109515760405162461bcd60e51b815260040161045d90611155565b60025442106109725760405162461bcd60e51b815260040161045d90611126565b600c80546000818152600b60205260408120929061098f836113eb565b909155505084516109a69082906020880190610cdc565b50600181018490556000600282018190556004820180546001600160a81b0319166101006001600160a01b03871602179055600c546040517f9883a4e4f8698e4cc93bafb8d0d2376cb8c51dd322cb9fd80d02c691fcdea50392610a1292918991899181908a90611247565b60405180910390a15050505050565b600c5481565b60035481565b60095460ff1681565b6007805461038c906113b0565b60055481565b600060018060095460ff166002811115610a7357634e487b7160e01b600052602160045260246000fd5b14610a905760405162461bcd60e51b815260040161045d90611155565b6002544210610ab15760405162461bcd60e51b815260040161045d90611126565b336000908152600a6020526040902054610add5760405162461bcd60e51b815260040161045d90611063565b336000818152600a6020526040808220549051839282156108fc02929190818181858888f19350505050158015610b18573d6000803e3d6000fd5b5050336000908152600a6020526040812055600191505b5090565b60008054600154600254600354600454600554600780546001600160a01b03909716979596949593949293919260609283929091829190610b73906113b0565b80601f0160208091040260200160405190810160405280929190818152602001828054610b9f906113b0565b8015610bec5780601f10610bc157610100808354040283529160200191610bec565b820191906000526020600020905b815481529060010190602001808311610bcf57829003601f168201915b5050505050935060088054610c00906113b0565b80601f0160208091040260200160405190810160405280929190818152602001828054610c2c906113b0565b8015610c795780601f10610c4e57610100808354040283529160200191610c79565b820191906000526020600020905b815481529060010190602001808311610c5c57829003601f168201915b50505050509250600960009054906101000a900460ff16915047905090919293949596979899565b60035460055410610cbe576009805460ff19166002179055610cd6565b600254421115610cd6576009805460ff191660011790555b42600455565b828054610ce8906113b0565b90600052602060002090601f016020900481019282610d0a5760008555610d50565b82601f10610d2357805160ff1916838001178555610d50565b82800160010185558215610d50579182015b82811115610d50578251825591602001919060010190610d35565b50610b2f9291505b80821115610b2f5760008155600101610d58565b8035610d7781611432565b919050565b600060208284031215610d8d578081fd5b8135610d9881611432565b9392505050565b600080600060608486031215610db3578182fd5b833567ffffffffffffffff80821115610dca578384fd5b818601915086601f830112610ddd578384fd5b8135602082821115610df157610df161141c565b604051601f8301601f1916810182018481118282101715610e1457610e1461141c565b60405282815284830182018a1015610e2a578687fd5b8282860183830137918201810195909552945050509083013590610e5060408501610d6c565b90509250925092565b600060208284031215610e6a578081fd5b5035919050565b6001600160a01b03169052565b15159052565b60038110610ea257634e487b7160e01b600052602160045260246000fd5b9052565b60008151808452815b81811015610ecb57602081850181015186830182015201610eaf565b81811115610edc5782602083870101525b50601f01601f19169290920160200192915050565b6001600160a01b0391909116815260200190565b600061014060018060a01b038d1683528b60208401528a60408401528960608401528860808401528760a08401528060c0840152610f4581840188610ea6565b905082810360e0840152610f598187610ea6565b915050610f6a610100830185610e84565b826101208301529b9a5050505050505050505050565b6001600160a01b03929092168252602082015260400190565b6001600160a01b039390931683526020830191909152604082015260600190565b901515815260200190565b60208101610fd38284610e84565b92915050565b600060208252610d986020830184610ea6565b600060a08252610fff60a0830188610ea6565b602083019690965250604081019390935290151560608301526001600160a01b0316608090910152919050565b6020808252601b908201527f4f6e6c7920636f6e7472696275746f722063616e20766f746520210000000000604082015260600190565b60208082526026908201527f596f7520646f6e74206861766520616e7920636f6e747269627574656420616d6040820152656f756e74202160d01b606082015260800190565b60208082526030908201527f596f7520646f6e7420686176652061636365737320746f20706572666f726d2060408201526f74686973206f7065726174696f6e202160801b606082015260800190565b602080825260139082015272596f7520616c726561647920766f746564202160681b604082015260600190565b602080825260159082015274446561646c696e652068617320706173736564202160581b604082015260600190565b6020808252600d908201526c496e76616c696420737461746560981b604082015260600190565b6020808252818101527f436f6e747269627574696f6e20616d6f756e7420697320746f6f206c6f772021604082015260600190565b60208082526019908201527f5265717565737420616c726561647920636f6d706c6574656400000000000000604082015260600190565b60208082526036908201527f4174206c656173742035302520636f6e7472696275746f72206e65656420746f604082015275081d9bdd1948199bdc881d1a1a5cc81c995c5d595cdd60521b606082015260800190565b90815260200190565b600087825260c0602083015261126060c0830188610ea6565b604083019690965250606081019390935290151560808301526001600160a01b031660a09091015292915050565b6000878252602060c081840152818854836002820490506001808316806112b657607f831692505b8583108114156112d457634e487b7160e01b87526022600452602487fd5b6112e18360c08a0161123e565b8180156112f5576001811461130657611330565b60ff19861682528782019650611330565b61130f8f61136c565b895b8681101561132a57815484820152908501908901611311565b83019750505b50505050505080925050508560408301528460608301526113546080830185610e7e565b61136160a0830184610e71565b979650505050505050565b60009081526020902090565b6000821982111561138b5761138b611406565b500190565b6000826113ab57634e487b7160e01b81526012600452602481fd5b500490565b6002810460018216806113c457607f821691505b602082108114156113e557634e487b7160e01b600052602260045260246000fd5b50919050565b60006000198214156113ff576113ff611406565b5060010190565b634e487b7160e01b600052601160045260246000fd5b634e487b7160e01b600052604160045260246000fd5b6001600160a01b038116811461144757600080fd5b5056fea26469706673582212203952a94d97f3c0cd8a7dcb89902f8637d4f85a9adb37d7d48061b5e3c3fff9e064736f6c63430008000033",
  "linkReferences": {},
  "deployedLinkReferences": {}
}